{
  "_format": "hh-sol-artifact-1",
  "contractName": "MyEpicNFT",
  "sourceName": "contracts/MyEpicNFTWords.sol",
  "abi": [
    {
      "inputs": [],
      "stateMutability": "nonpayable",
      "type": "constructor"
    },
    {
      "anonymous": false,
      "inputs": [
        {
          "indexed": true,
          "internalType": "address",
          "name": "owner",
          "type": "address"
        },
        {
          "indexed": true,
          "internalType": "address",
          "name": "approved",
          "type": "address"
        },
        {
          "indexed": true,
          "internalType": "uint256",
          "name": "tokenId",
          "type": "uint256"
        }
      ],
      "name": "Approval",
      "type": "event"
    },
    {
      "anonymous": false,
      "inputs": [
        {
          "indexed": true,
          "internalType": "address",
          "name": "owner",
          "type": "address"
        },
        {
          "indexed": true,
          "internalType": "address",
          "name": "operator",
          "type": "address"
        },
        {
          "indexed": false,
          "internalType": "bool",
          "name": "approved",
          "type": "bool"
        }
      ],
      "name": "ApprovalForAll",
      "type": "event"
    },
    {
      "anonymous": false,
      "inputs": [
        {
          "indexed": false,
          "internalType": "address",
          "name": "sender",
          "type": "address"
        },
        {
          "indexed": false,
          "internalType": "uint256",
          "name": "tokenId",
          "type": "uint256"
        }
      ],
      "name": "NewEpicNFTMinted",
      "type": "event"
    },
    {
      "anonymous": false,
      "inputs": [
        {
          "indexed": true,
          "internalType": "address",
          "name": "from",
          "type": "address"
        },
        {
          "indexed": true,
          "internalType": "address",
          "name": "to",
          "type": "address"
        },
        {
          "indexed": true,
          "internalType": "uint256",
          "name": "tokenId",
          "type": "uint256"
        }
      ],
      "name": "Transfer",
      "type": "event"
    },
    {
      "inputs": [
        {
          "internalType": "address",
          "name": "to",
          "type": "address"
        },
        {
          "internalType": "uint256",
          "name": "tokenId",
          "type": "uint256"
        }
      ],
      "name": "approve",
      "outputs": [],
      "stateMutability": "nonpayable",
      "type": "function"
    },
    {
      "inputs": [
        {
          "internalType": "address",
          "name": "owner",
          "type": "address"
        }
      ],
      "name": "balanceOf",
      "outputs": [
        {
          "internalType": "uint256",
          "name": "",
          "type": "uint256"
        }
      ],
      "stateMutability": "view",
      "type": "function"
    },
    {
      "inputs": [
        {
          "internalType": "uint256",
          "name": "tokenId",
          "type": "uint256"
        }
      ],
      "name": "getApproved",
      "outputs": [
        {
          "internalType": "address",
          "name": "",
          "type": "address"
        }
      ],
      "stateMutability": "view",
      "type": "function"
    },
    {
      "inputs": [],
      "name": "getTotalNFTMintedSoFar",
      "outputs": [
        {
          "internalType": "uint256",
          "name": "",
          "type": "uint256"
        }
      ],
      "stateMutability": "view",
      "type": "function"
    },
    {
      "inputs": [
        {
          "internalType": "address",
          "name": "owner",
          "type": "address"
        },
        {
          "internalType": "address",
          "name": "operator",
          "type": "address"
        }
      ],
      "name": "isApprovedForAll",
      "outputs": [
        {
          "internalType": "bool",
          "name": "",
          "type": "bool"
        }
      ],
      "stateMutability": "view",
      "type": "function"
    },
    {
      "inputs": [],
      "name": "makeAnEpicNFT",
      "outputs": [],
      "stateMutability": "payable",
      "type": "function"
    },
    {
      "inputs": [],
      "name": "mintPrice",
      "outputs": [
        {
          "internalType": "uint256",
          "name": "",
          "type": "uint256"
        }
      ],
      "stateMutability": "view",
      "type": "function"
    },
    {
      "inputs": [],
      "name": "name",
      "outputs": [
        {
          "internalType": "string",
          "name": "",
          "type": "string"
        }
      ],
      "stateMutability": "view",
      "type": "function"
    },
    {
      "inputs": [
        {
          "internalType": "uint256",
          "name": "tokenId",
          "type": "uint256"
        }
      ],
      "name": "ownerOf",
      "outputs": [
        {
          "internalType": "address",
          "name": "",
          "type": "address"
        }
      ],
      "stateMutability": "view",
      "type": "function"
    },
    {
      "inputs": [
        {
          "internalType": "uint256",
          "name": "tokenId",
          "type": "uint256"
        }
      ],
      "name": "pickRandomAction",
      "outputs": [
        {
          "internalType": "string",
          "name": "",
          "type": "string"
        }
      ],
      "stateMutability": "view",
      "type": "function"
    },
    {
      "inputs": [
        {
          "internalType": "uint256",
          "name": "tokenId",
          "type": "uint256"
        }
      ],
      "name": "pickRandomFamousPeople",
      "outputs": [
        {
          "internalType": "string",
          "name": "",
          "type": "string"
        }
      ],
      "stateMutability": "view",
      "type": "function"
    },
    {
      "inputs": [
        {
          "internalType": "uint256",
          "name": "tokenId",
          "type": "uint256"
        }
      ],
      "name": "pickRandomFancy",
      "outputs": [
        {
          "internalType": "string",
          "name": "",
          "type": "string"
        }
      ],
      "stateMutability": "view",
      "type": "function"
    },
    {
      "inputs": [
        {
          "internalType": "uint256",
          "name": "tokenId",
          "type": "uint256"
        }
      ],
      "name": "pickRandomPlace",
      "outputs": [
        {
          "internalType": "string",
          "name": "",
          "type": "string"
        }
      ],
      "stateMutability": "view",
      "type": "function"
    },
    {
      "inputs": [
        {
          "internalType": "address",
          "name": "from",
          "type": "address"
        },
        {
          "internalType": "address",
          "name": "to",
          "type": "address"
        },
        {
          "internalType": "uint256",
          "name": "tokenId",
          "type": "uint256"
        }
      ],
      "name": "safeTransferFrom",
      "outputs": [],
      "stateMutability": "nonpayable",
      "type": "function"
    },
    {
      "inputs": [
        {
          "internalType": "address",
          "name": "from",
          "type": "address"
        },
        {
          "internalType": "address",
          "name": "to",
          "type": "address"
        },
        {
          "internalType": "uint256",
          "name": "tokenId",
          "type": "uint256"
        },
        {
          "internalType": "bytes",
          "name": "_data",
          "type": "bytes"
        }
      ],
      "name": "safeTransferFrom",
      "outputs": [],
      "stateMutability": "nonpayable",
      "type": "function"
    },
    {
      "inputs": [
        {
          "internalType": "address",
          "name": "operator",
          "type": "address"
        },
        {
          "internalType": "bool",
          "name": "approved",
          "type": "bool"
        }
      ],
      "name": "setApprovalForAll",
      "outputs": [],
      "stateMutability": "nonpayable",
      "type": "function"
    },
    {
      "inputs": [
        {
          "internalType": "bytes4",
          "name": "interfaceId",
          "type": "bytes4"
        }
      ],
      "name": "supportsInterface",
      "outputs": [
        {
          "internalType": "bool",
          "name": "",
          "type": "bool"
        }
      ],
      "stateMutability": "view",
      "type": "function"
    },
    {
      "inputs": [],
      "name": "symbol",
      "outputs": [
        {
          "internalType": "string",
          "name": "",
          "type": "string"
        }
      ],
      "stateMutability": "view",
      "type": "function"
    },
    {
      "inputs": [
        {
          "internalType": "uint256",
          "name": "tokenId",
          "type": "uint256"
        }
      ],
      "name": "tokenURI",
      "outputs": [
        {
          "internalType": "string",
          "name": "",
          "type": "string"
        }
      ],
      "stateMutability": "view",
      "type": "function"
    },
    {
      "inputs": [
        {
          "internalType": "address",
          "name": "from",
          "type": "address"
        },
        {
          "internalType": "address",
          "name": "to",
          "type": "address"
        },
        {
          "internalType": "uint256",
          "name": "tokenId",
          "type": "uint256"
        }
      ],
      "name": "transferFrom",
      "outputs": [],
      "stateMutability": "nonpayable",
      "type": "function"
    }
  ],
  "bytecode": "0x60806040526658d15e1762800060085560405180610160016040528061012f81526020016200586b61012f9139600990805190602001906200004392919062001391565b506040518061024001604052806040518060400160405280600581526020017f53706f636b00000000000000000000000000000000000000000000000000000081525081526020016040518060400160405280600e81526020017f4361707461696e204d617276656c00000000000000000000000000000000000081525081526020016040518060400160405280600881526020017f53757065726d616e00000000000000000000000000000000000000000000000081525081526020016040518060400160405280601781526020017f4c6973612053696d70736f6e446172746820566164657200000000000000000081525081526020016040518060400160405280600881526020017f4865726d696f6e6500000000000000000000000000000000000000000000000081525081526020016040518060400160405280600c81526020017f4d69636b6579204d6f757365000000000000000000000000000000000000000081525081526020016040518060400160405280600881526020017f4461656e6572797300000000000000000000000000000000000000000000000081525081526020016040518060400160405280600f81526020017f57696e6e69652074686520506f6f68000000000000000000000000000000000081525081526020016040518060400160405280600a81526020017f4c6172612043726f66740000000000000000000000000000000000000000000081525081526020016040518060400160405280600b81526020017f446172746820566164657200000000000000000000000000000000000000000081525081526020016040518060400160405280600681526020017f4261746d616e000000000000000000000000000000000000000000000000000081525081526020016040518060400160405280600881526020017f4d722e526f626f7400000000000000000000000000000000000000000000000081525081526020016040518060400160405280600881526020017f5468652048756c6b00000000000000000000000000000000000000000000000081525081526020016040518060400160405280600981526020017f546865204a6f6b6572000000000000000000000000000000000000000000000081525081526020016040518060400160405280600581526020017f416c65786100000000000000000000000000000000000000000000000000000081525081526020016040518060400160405280600781526020017f436f7274616e610000000000000000000000000000000000000000000000000081525081526020016040518060400160405280600481526020017f536972690000000000000000000000000000000000000000000000000000000081525081526020016040518060400160405280600981526020017f53706f6e6765626f620000000000000000000000000000000000000000000000815250815250600a9060126200048692919062001422565b506040518061026001604052806040518060400160405280600681526020017f47616e646869000000000000000000000000000000000000000000000000000081525081526020016040518060400160405280601681526020017f53616d616e7468612043726973746f666f72657474690000000000000000000081525081526020016040518060400160405280600581526020017f4b616e796500000000000000000000000000000000000000000000000000000081525081526020016040518060400160405280600f81526020017f48696c6c61727920436c696e746f6e000000000000000000000000000000000081525081526020016040518060400160405280600e81526020017f4d69636861656c204a6f7264616e00000000000000000000000000000000000081525081526020016040518060400160405280600a81526020017f42696c6c2047617465730000000000000000000000000000000000000000000081525081526020016040518060400160405280600a81526020017f5374657665204a6f62730000000000000000000000000000000000000000000081525081526020016040518060400160405280600f81526020017f4d61726b205a75636b657262657267000000000000000000000000000000000081525081526020016040518060400160405280600981526020017f456c6f6e204d75736b000000000000000000000000000000000000000000000081525081526020016040518060400160405280600c81526020017f446f6e616c64205472756d70000000000000000000000000000000000000000081525081526020016040518060400160405280600581526020017f426964656e00000000000000000000000000000000000000000000000000000081525081526020016040518060400160405280600581526020017f507574696e00000000000000000000000000000000000000000000000000000081525081526020016040518060400160405280600981526020017f536e6f6f70446f6767000000000000000000000000000000000000000000000081525081526020016040518060400160405280600581526020017f4f62616d6100000000000000000000000000000000000000000000000000000081525081526020016040518060400160405280600981526020017f74686520517565656e000000000000000000000000000000000000000000000081525081526020016040518060400160405280600881526020017f796f7572204d6f6d00000000000000000000000000000000000000000000000081525081526020016040518060400160405280600e81526020017f4772657461205468756e6265726700000000000000000000000000000000000081525081526020016040518060400160405280600781526020017f5a656e646179610000000000000000000000000000000000000000000000000081525081526020016040518060400160405280601181526020017f54796c6572205468652043726561746f72000000000000000000000000000000815250815250600b9060136200090492919062001489565b50604051806102e001604052806040518060400160405280600781526020017f64616e63696e670000000000000000000000000000000000000000000000000081525081526020016040518060400160405280600681526020017f656174696e67000000000000000000000000000000000000000000000000000081525081526020016040518060400160405280600881526020017f6669676874696e6700000000000000000000000000000000000000000000000081525081526020016040518060400160405280600781526020017f6a756d70696e670000000000000000000000000000000000000000000000000081525081526020016040518060400160405280600781526020017f72756e6e696e670000000000000000000000000000000000000000000000000081525081526020016040518060400160405280600881526020017f736c656570696e6700000000000000000000000000000000000000000000000081525081526020016040518060400160405280600881526020017f7377696d6d696e6700000000000000000000000000000000000000000000000081525081526020016040518060400160405280600881526020017f7468696e6b696e6700000000000000000000000000000000000000000000000081525081526020016040518060400160405280600681526020017f747970696e67000000000000000000000000000000000000000000000000000081525081526020016040518060400160405280600781526020017f77616c6b696e670000000000000000000000000000000000000000000000000081525081526020016040518060400160405280600d81526020017f627261696e73746f726d696e670000000000000000000000000000000000000081525081526020016040518060400160405280600d81526020017f706c6179696e672063686573730000000000000000000000000000000000000081525081526020016040518060400160405280601081526020017f7761746368696e67204e6574666c69780000000000000000000000000000000081525081526020016040518060400160405280601381526020017f7374756479696e6720626c6f636b636861696e0000000000000000000000000081525081526020016040518060400160405280600c81526020017f6d616b696e67206d75736963000000000000000000000000000000000000000081525081526020016040518060400160405280601281526020017f73746172696e672065616368206f74686572000000000000000000000000000081525081526020016040518060400160405280600881526020017f666c697274696e6700000000000000000000000000000000000000000000000081525081526020016040518060400160405280600681526020017f637279696e67000000000000000000000000000000000000000000000000000081525081526020016040518060400160405280600a81526020017f6d656469746174696e670000000000000000000000000000000000000000000081525081526020016040518060400160405280600c81526020017f74616b696e67206472756773000000000000000000000000000000000000000081525081526020016040518060400160405280600f81526020017f74616b696e6720612073656c666965000000000000000000000000000000000081525081526020016040518060400160405280600f81526020017f706c6179696e672066726973626565000000000000000000000000000000000081525081526020016040518060400160405280600581526020017f6e616b6564000000000000000000000000000000000000000000000000000000815250815250600c90601762000e6e929190620014f0565b50604051806101c001604052806040518060400160405280600b81526020017f6f6e20746865206d6f6f6e00000000000000000000000000000000000000000081525081526020016040518060400160405280600781526020017f6f6e204d6172730000000000000000000000000000000000000000000000000081525081526020016040518060400160405280600881526020017f696e204974616c7900000000000000000000000000000000000000000000000081525081526020016040518060400160405280600781526020017f617420686f6d650000000000000000000000000000000000000000000000000081525081526020016040518060400160405280600a81526020017f696e20746865206361720000000000000000000000000000000000000000000081525081526020016040518060400160405280600681526020017f6f6e20495353000000000000000000000000000000000000000000000000000081525081526020016040518060400160405280600c81526020017f696e20746865206f6365616e000000000000000000000000000000000000000081525081526020016040518060400160405280600a81526020017f696e2074686520736b790000000000000000000000000000000000000000000081525081526020016040518060400160405280600d81526020017f6f6e207468652067726f756e640000000000000000000000000000000000000081525081526020016040518060400160405280601281526020017f6f76657220746865206d6f756e7461696e73000000000000000000000000000081525081526020016040518060400160405280600d81526020017f696e20746865206465736572740000000000000000000000000000000000000081525081526020016040518060400160405280600f81526020017f6e6561722074686520666f72657374000000000000000000000000000000000081525081526020016040518060400160405280600c81526020017f617420746865206265616368000000000000000000000000000000000000000081525081526020016040518060400160405280600f81526020017f696e2061206379626572747275636b0000000000000000000000000000000000815250815250600d90600e620011c592919062001557565b50348015620011d357600080fd5b506040518060400160405280600981526020017f5371756172654e465400000000000000000000000000000000000000000000008152506040518060400160405280600681526020017f535155415245000000000000000000000000000000000000000000000000000081525081600090805190602001906200125892919062001391565b5080600190805190602001906200127192919062001391565b505050620012bf6040518060400160405280601e81526020017f54686973206973206d79204e465420636f6e74726163742e20576f6168210000815250620012c560201b620014601760201c565b62001778565b6200136581604051602401620012dc91906200168c565b6040516020818303038152906040527f41304fac000000000000000000000000000000000000000000000000000000007bffffffffffffffffffffffffffffffffffffffffffffffffffffffff19166020820180517bffffffffffffffffffffffffffffffffffffffffffffffffffffffff83818316178352505050506200136860201b60201c565b50565b60008151905060006a636f6e736f6c652e6c6f679050602083016000808483855afa5050505050565b8280546200139f9062001702565b90600052602060002090601f016020900481019282620013c357600085556200140f565b82601f10620013de57805160ff19168380011785556200140f565b828001600101855582156200140f579182015b828111156200140e578251825591602001919060010190620013f1565b5b5090506200141e9190620015be565b5090565b82805482825590600052602060002090810192821562001476579160200282015b82811115620014755782518290805190602001906200146492919062001391565b509160200191906001019062001443565b5b509050620014859190620015dd565b5090565b828054828255906000526020600020908101928215620014dd579160200282015b82811115620014dc578251829080519060200190620014cb92919062001391565b5091602001919060010190620014aa565b5b509050620014ec9190620015dd565b5090565b82805482825590600052602060002090810192821562001544579160200282015b82811115620015435782518290805190602001906200153292919062001391565b509160200191906001019062001511565b5b509050620015539190620015dd565b5090565b828054828255906000526020600020908101928215620015ab579160200282015b82811115620015aa5782518290805190602001906200159992919062001391565b509160200191906001019062001578565b5b509050620015ba9190620015dd565b5090565b5b80821115620015d9576000816000905550600101620015bf565b5090565b5b80821115620016015760008181620015f7919062001605565b50600101620015de565b5090565b508054620016139062001702565b6000825580601f1062001627575062001648565b601f016020900490600052602060002090810190620016479190620015be565b5b50565b60006200165882620016b0565b620016648185620016bb565b935062001676818560208601620016cc565b620016818162001767565b840191505092915050565b60006020820190508181036000830152620016a881846200164b565b905092915050565b600081519050919050565b600082825260208201905092915050565b60005b83811015620016ec578082015181840152602081019050620016cf565b83811115620016fc576000848401525b50505050565b600060028204905060018216806200171b57607f821691505b6020821081141562001732576200173162001738565b5b50919050565b7f4e487b7100000000000000000000000000000000000000000000000000000000600052602260045260246000fd5b6000601f19601f8301169050919050565b6140e380620017886000396000f3fe60806040526004361061011f5760003560e01c806370a08231116100a0578063b88d4fde11610064578063b88d4fde1461041f578063c5d3ef2314610448578063c87b56dd14610485578063de9d132f146104c2578063e985e9c5146104cc5761011f565b806370a082311461031457806395d89b4114610351578063a22cb4651461037c578063ab1b1ddb146103a5578063ab725beb146103e25761011f565b80632799d6e5116100e75780632799d6e51461021b57806342842e0e1461025857806359f4a51e146102815780636352211e146102ac5780636817c76c146102e95761011f565b806301ffc9a71461012457806306fdde0314610161578063081812fc1461018c578063095ea7b3146101c957806323b872dd146101f2575b600080fd5b34801561013057600080fd5b5061014b600480360381019061014691906128f4565b610509565b6040516101589190613142565b60405180910390f35b34801561016d57600080fd5b506101766105eb565b604051610183919061315d565b60405180910390f35b34801561019857600080fd5b506101b360048036038101906101ae9190612946565b61067d565b6040516101c091906130b2565b60405180910390f35b3480156101d557600080fd5b506101f060048036038101906101eb91906128b8565b610702565b005b3480156101fe57600080fd5b50610219600480360381019061021491906127b2565b61081a565b005b34801561022757600080fd5b50610242600480360381019061023d9190612946565b61087a565b60405161024f919061315d565b60405180910390f35b34801561026457600080fd5b5061027f600480360381019061027a91906127b2565b610998565b005b34801561028d57600080fd5b506102966109b8565b6040516102a39190613434565b60405180910390f35b3480156102b857600080fd5b506102d360048036038101906102ce9190612946565b6109c9565b6040516102e091906130b2565b60405180910390f35b3480156102f557600080fd5b506102fe610a7b565b60405161030b9190613434565b60405180910390f35b34801561032057600080fd5b5061033b6004803603810190610336919061274d565b610a81565b6040516103489190613434565b60405180910390f35b34801561035d57600080fd5b50610366610b39565b604051610373919061315d565b60405180910390f35b34801561038857600080fd5b506103a3600480360381019061039e919061287c565b610bcb565b005b3480156103b157600080fd5b506103cc60048036038101906103c79190612946565b610be1565b6040516103d9919061315d565b60405180910390f35b3480156103ee57600080fd5b5061040960048036038101906104049190612946565b610cff565b604051610416919061315d565b60405180910390f35b34801561042b57600080fd5b5061044660048036038101906104419190612801565b610e1d565b005b34801561045457600080fd5b5061046f600480360381019061046a9190612946565b610e7f565b60405161047c919061315d565b60405180910390f35b34801561049157600080fd5b506104ac60048036038101906104a79190612946565b610f9d565b6040516104b9919061315d565b60405180910390f35b6104ca6110ef565b005b3480156104d857600080fd5b506104f360048036038101906104ee9190612776565b6113cc565b6040516105009190613142565b60405180910390f35b60007f80ac58cd000000000000000000000000000000000000000000000000000000007bffffffffffffffffffffffffffffffffffffffffffffffffffffffff1916827bffffffffffffffffffffffffffffffffffffffffffffffffffffffff191614806105d457507f5b5e139f000000000000000000000000000000000000000000000000000000007bffffffffffffffffffffffffffffffffffffffffffffffffffffffff1916827bffffffffffffffffffffffffffffffffffffffffffffffffffffffff1916145b806105e457506105e3826114f9565b5b9050919050565b6060600080546105fa906136c8565b80601f0160208091040260200160405190810160405280929190818152602001828054610626906136c8565b80156106735780601f1061064857610100808354040283529160200191610673565b820191906000526020600020905b81548152906001019060200180831161065657829003601f168201915b5050505050905090565b600061068882611563565b6106c7576040517f08c379a00000000000000000000000000000000000000000000000000000000081526004016106be90613394565b60405180910390fd5b6004600083815260200190815260200160002060009054906101000a900473ffffffffffffffffffffffffffffffffffffffff169050919050565b600061070d826109c9565b90508073ffffffffffffffffffffffffffffffffffffffff168373ffffffffffffffffffffffffffffffffffffffff16141561077e576040517f08c379a0000000000000000000000000000000000000000000000000000000008152600401610775906133d4565b60405180910390fd5b8073ffffffffffffffffffffffffffffffffffffffff1661079d6115cf565b73ffffffffffffffffffffffffffffffffffffffff1614806107cc57506107cb816107c66115cf565b6113cc565b5b61080b576040517f08c379a0000000000000000000000000000000000000000000000000000000008152600401610802906132d4565b60405180910390fd5b61081583836115d7565b505050565b61082b6108256115cf565b82611690565b61086a576040517f08c379a0000000000000000000000000000000000000000000000000000000008152600401610861906133f4565b60405180910390fd5b61087583838361176e565b505050565b606060006108ae61088a846119d5565b60405160200161089a9190613007565b604051602081830303815290604052611b82565b9050600b80549050816108c19190613774565b9050600b81815481106108fd577f4e487b7100000000000000000000000000000000000000000000000000000000600052603260045260246000fd5b906000526020600020018054610912906136c8565b80601f016020809104026020016040519081016040528092919081815260200182805461093e906136c8565b801561098b5780601f106109605761010080835404028352916020019161098b565b820191906000526020600020905b81548152906001019060200180831161096e57829003601f168201915b5050505050915050919050565b6109b383838360405180602001604052806000815250610e1d565b505050565b60006109c46007611bb5565b905090565b6000806002600084815260200190815260200160002060009054906101000a900473ffffffffffffffffffffffffffffffffffffffff169050600073ffffffffffffffffffffffffffffffffffffffff168173ffffffffffffffffffffffffffffffffffffffff161415610a72576040517f08c379a0000000000000000000000000000000000000000000000000000000008152600401610a6990613314565b60405180910390fd5b80915050919050565b60085481565b60008073ffffffffffffffffffffffffffffffffffffffff168273ffffffffffffffffffffffffffffffffffffffff161415610af2576040517f08c379a0000000000000000000000000000000000000000000000000000000008152600401610ae9906132f4565b60405180910390fd5b600360008373ffffffffffffffffffffffffffffffffffffffff1673ffffffffffffffffffffffffffffffffffffffff168152602001908152602001600020549050919050565b606060018054610b48906136c8565b80601f0160208091040260200160405190810160405280929190818152602001828054610b74906136c8565b8015610bc15780601f10610b9657610100808354040283529160200191610bc1565b820191906000526020600020905b815481529060010190602001808311610ba457829003601f168201915b5050505050905090565b610bdd610bd66115cf565b8383611bc3565b5050565b60606000610c15610bf1846119d5565b604051602001610c019190613090565b604051602081830303815290604052611b82565b9050600c8054905081610c289190613774565b9050600c8181548110610c64577f4e487b7100000000000000000000000000000000000000000000000000000000600052603260045260246000fd5b906000526020600020018054610c79906136c8565b80601f0160208091040260200160405190810160405280929190818152602001828054610ca5906136c8565b8015610cf25780601f10610cc757610100808354040283529160200191610cf2565b820191906000526020600020905b815481529060010190602001808311610cd557829003601f168201915b5050505050915050919050565b60606000610d33610d0f846119d5565b604051602001610d1f9190612fe5565b604051602081830303815290604052611b82565b9050600a8054905081610d469190613774565b9050600a8181548110610d82577f4e487b7100000000000000000000000000000000000000000000000000000000600052603260045260246000fd5b906000526020600020018054610d97906136c8565b80601f0160208091040260200160405190810160405280929190818152602001828054610dc3906136c8565b8015610e105780601f10610de557610100808354040283529160200191610e10565b820191906000526020600020905b815481529060010190602001808311610df357829003601f168201915b5050505050915050919050565b610e2e610e286115cf565b83611690565b610e6d576040517f08c379a0000000000000000000000000000000000000000000000000000000008152600401610e64906133f4565b60405180910390fd5b610e7984848484611d30565b50505050565b60606000610eb3610e8f846119d5565b604051602001610e9f9190612fc3565b604051602081830303815290604052611b82565b9050600d8054905081610ec69190613774565b9050600d8181548110610f02577f4e487b7100000000000000000000000000000000000000000000000000000000600052603260045260246000fd5b906000526020600020018054610f17906136c8565b80601f0160208091040260200160405190810160405280929190818152602001828054610f43906136c8565b8015610f905780601f10610f6557610100808354040283529160200191610f90565b820191906000526020600020905b815481529060010190602001808311610f7357829003601f168201915b5050505050915050919050565b6060610fa882611563565b610fe7576040517f08c379a0000000000000000000000000000000000000000000000000000000008152600401610fde90613374565b60405180910390fd5b6000600660008481526020019081526020016000208054611007906136c8565b80601f0160208091040260200160405190810160405280929190818152602001828054611033906136c8565b80156110805780601f1061105557610100808354040283529160200191611080565b820191906000526020600020905b81548152906001019060200180831161106357829003601f168201915b505050505090506000611091611d8c565b90506000815114156110a75781925050506110ea565b6000825111156110dc5780826040516020016110c4929190612eef565b604051602081830303815290604052925050506110ea565b6110e584611da3565b925050505b919050565b6008543414611133576040517f08c379a000000000000000000000000000000000000000000000000000000000815260040161112a906131f4565b60405180910390fd5b600061113f6007611bb5565b90506032811115611185576040517f08c379a000000000000000000000000000000000000000000000000000000000815260040161117c90613414565b60405180910390fd5b600061119082610cff565b9050600061119d8361087a565b905060006111aa84610be1565b905060006111b785610e7f565b90506000848484846040516020016111d29493929190612f13565b604051602081830303815290604052905060006009826040516020016111f9929190612f72565b6040516020818303038152906040529050600061123e8361121984611e4a565b60405160200161122a929190613029565b604051602081830303815290604052611e4a565b9050600081604051602001611253919061306e565b60405160208183030381529060405290506112a26040518060400160405280601581526020017f0a2d2d2d2d2d2d2d2d2d2d2d2d2d2d2d2d2d2d2d2d0000000000000000000000815250611460565b6112ab83611460565b6113096040518060400160405280600e81526020017f66756c6c20707265766965773a20000000000000000000000000000000000000815250826040516020016112f59190612fa1565b604051602081830303815290604052611fd4565b6113476040518060400160405280601581526020017f2d2d2d2d2d2d2d2d2d2d2d2d2d2d2d2d2d2d2d2d0a0000000000000000000000815250611460565b611351338a612070565b61135b898261208e565b6113656007612102565b611388604051806060016040528060258152602001614049602591398a33612118565b7febb98688741ffa4c7589bf325de30cf7becb63de567842e1ccdb6cb949fdc82c338a6040516113b9929190613119565b60405180910390a1505050505050505050565b6000600560008473ffffffffffffffffffffffffffffffffffffffff1673ffffffffffffffffffffffffffffffffffffffff16815260200190815260200160002060008373ffffffffffffffffffffffffffffffffffffffff1673ffffffffffffffffffffffffffffffffffffffff16815260200190815260200160002060009054906101000a900460ff16905092915050565b6114f681604051602401611474919061315d565b6040516020818303038152906040527f41304fac000000000000000000000000000000000000000000000000000000007bffffffffffffffffffffffffffffffffffffffffffffffffffffffff19166020820180517bffffffffffffffffffffffffffffffffffffffffffffffffffffffff83818316178352505050506121b7565b50565b60007f01ffc9a7000000000000000000000000000000000000000000000000000000007bffffffffffffffffffffffffffffffffffffffffffffffffffffffff1916827bffffffffffffffffffffffffffffffffffffffffffffffffffffffff1916149050919050565b60008073ffffffffffffffffffffffffffffffffffffffff166002600084815260200190815260200160002060009054906101000a900473ffffffffffffffffffffffffffffffffffffffff1673ffffffffffffffffffffffffffffffffffffffff1614159050919050565b600033905090565b816004600083815260200190815260200160002060006101000a81548173ffffffffffffffffffffffffffffffffffffffff021916908373ffffffffffffffffffffffffffffffffffffffff160217905550808273ffffffffffffffffffffffffffffffffffffffff1661164a836109c9565b73ffffffffffffffffffffffffffffffffffffffff167f8c5be1e5ebec7d5bd14f71427d1e84f3dd0314c0f7b2291e5b200ac8c7c3b92560405160405180910390a45050565b600061169b82611563565b6116da576040517f08c379a00000000000000000000000000000000000000000000000000000000081526004016116d1906132b4565b60405180910390fd5b60006116e5836109c9565b90508073ffffffffffffffffffffffffffffffffffffffff168473ffffffffffffffffffffffffffffffffffffffff16148061175457508373ffffffffffffffffffffffffffffffffffffffff1661173c8461067d565b73ffffffffffffffffffffffffffffffffffffffff16145b80611765575061176481856113cc565b5b91505092915050565b8273ffffffffffffffffffffffffffffffffffffffff1661178e826109c9565b73ffffffffffffffffffffffffffffffffffffffff16146117e4576040517f08c379a00000000000000000000000000000000000000000000000000000000081526004016117db90613234565b60405180910390fd5b600073ffffffffffffffffffffffffffffffffffffffff168273ffffffffffffffffffffffffffffffffffffffff161415611854576040517f08c379a000000000000000000000000000000000000000000000000000000000815260040161184b90613274565b60405180910390fd5b61185f8383836121e0565b61186a6000826115d7565b6001600360008573ffffffffffffffffffffffffffffffffffffffff1673ffffffffffffffffffffffffffffffffffffffff16815260200190815260200160002060008282546118ba91906135de565b925050819055506001600360008473ffffffffffffffffffffffffffffffffffffffff1673ffffffffffffffffffffffffffffffffffffffff168152602001908152602001600020600082825461191191906134fd565b92505081905550816002600083815260200190815260200160002060006101000a81548173ffffffffffffffffffffffffffffffffffffffff021916908373ffffffffffffffffffffffffffffffffffffffff160217905550808273ffffffffffffffffffffffffffffffffffffffff168473ffffffffffffffffffffffffffffffffffffffff167fddf252ad1be2c89b69c2b068fc378daa952ba7f163c4a11628f55a4df523b3ef60405160405180910390a46119d08383836121e5565b505050565b60606000821415611a1d576040518060400160405280600181526020017f30000000000000000000000000000000000000000000000000000000000000008152509050611b7d565b600082905060005b60008214611a4f578080611a389061372b565b915050600a82611a489190613553565b9150611a25565b60008167ffffffffffffffff811115611a91577f4e487b7100000000000000000000000000000000000000000000000000000000600052604160045260246000fd5b6040519080825280601f01601f191660200182016040528015611ac35781602001600182028036833780820191505090505b5090505b60008514611b7657600182611adc91906135de565b9150600a85611aeb9190613774565b6030611af791906134fd565b60f81b818381518110611b33577f4e487b7100000000000000000000000000000000000000000000000000000000600052603260045260246000fd5b60200101907effffffffffffffffffffffffffffffffffffffffffffffffffffffffffffff1916908160001a905350600a85611b6f9190613553565b9450611ac7565b8093505050505b919050565b600081604051602001611b959190612ed8565b6040516020818303038152906040528051906020012060001c9050919050565b600081600001549050919050565b8173ffffffffffffffffffffffffffffffffffffffff168373ffffffffffffffffffffffffffffffffffffffff161415611c32576040517f08c379a0000000000000000000000000000000000000000000000000000000008152600401611c2990613294565b60405180910390fd5b80600560008573ffffffffffffffffffffffffffffffffffffffff1673ffffffffffffffffffffffffffffffffffffffff16815260200190815260200160002060008473ffffffffffffffffffffffffffffffffffffffff1673ffffffffffffffffffffffffffffffffffffffff16815260200190815260200160002060006101000a81548160ff0219169083151502179055508173ffffffffffffffffffffffffffffffffffffffff168373ffffffffffffffffffffffffffffffffffffffff167f17307eab39ab6107e8899845ad3d59bd9653f200f220920489ca2b5937696c3183604051611d239190613142565b60405180910390a3505050565b611d3b84848461176e565b611d47848484846121ea565b611d86576040517f08c379a0000000000000000000000000000000000000000000000000000000008152600401611d7d90613214565b60405180910390fd5b50505050565b606060405180602001604052806000815250905090565b6060611dae82611563565b611ded576040517f08c379a0000000000000000000000000000000000000000000000000000000008152600401611de4906133b4565b60405180910390fd5b6000611df7611d8c565b90506000815111611e175760405180602001604052806000815250611e42565b80611e21846119d5565b604051602001611e32929190612eef565b6040516020818303038152906040525b915050919050565b6060600082511415611e6d57604051806020016040528060008152509050611fcf565b600060405180606001604052806040815260200161406e6040913990506000600360028551611e9c91906134fd565b611ea69190613553565b6004611eb29190613584565b67ffffffffffffffff811115611ef1577f4e487b7100000000000000000000000000000000000000000000000000000000600052604160045260246000fd5b6040519080825280601f01601f191660200182016040528015611f235781602001600182028036833780820191505090505b509050600182016020820185865187015b80821015611f8f576003820191508151603f8160121c168501518453600184019350603f81600c1c168501518453600184019350603f8160061c168501518453600184019350603f8116850151845360018401935050611f34565b5050600386510660018114611fab5760028114611fbe57611fc6565b603d6001830353603d6002830353611fc6565b603d60018303535b50505080925050505b919050565b61206c8282604051602401611fea92919061317f565b6040516020818303038152906040527f4b5c4277000000000000000000000000000000000000000000000000000000007bffffffffffffffffffffffffffffffffffffffffffffffffffffffff19166020820180517bffffffffffffffffffffffffffffffffffffffffffffffffffffffff83818316178352505050506121b7565b5050565b61208a828260405180602001604052806000815250612381565b5050565b61209782611563565b6120d6576040517f08c379a00000000000000000000000000000000000000000000000000000000081526004016120cd90613334565b60405180910390fd5b806006600084815260200190815260200160002090805190602001906120fd9291906125d9565b505050565b6001816000016000828254019250508190555050565b6121b2838383604051602401612130939291906131b6565b6040516020818303038152906040527fe3849f79000000000000000000000000000000000000000000000000000000007bffffffffffffffffffffffffffffffffffffffffffffffffffffffff19166020820180517bffffffffffffffffffffffffffffffffffffffffffffffffffffffff83818316178352505050506121b7565b505050565b60008151905060006a636f6e736f6c652e6c6f679050602083016000808483855afa5050505050565b505050565b505050565b600061220b8473ffffffffffffffffffffffffffffffffffffffff166123dc565b15612374578373ffffffffffffffffffffffffffffffffffffffff1663150b7a026122346115cf565b8786866040518563ffffffff1660e01b815260040161225694939291906130cd565b602060405180830381600087803b15801561227057600080fd5b505af19250505080156122a157506040513d601f19601f8201168201806040525081019061229e919061291d565b60015b612324573d80600081146122d1576040519150601f19603f3d011682016040523d82523d6000602084013e6122d6565b606091505b5060008151141561231c576040517f08c379a000000000000000000000000000000000000000000000000000000000815260040161231390613214565b60405180910390fd5b805181602001fd5b63150b7a0260e01b7bffffffffffffffffffffffffffffffffffffffffffffffffffffffff1916817bffffffffffffffffffffffffffffffffffffffffffffffffffffffff191614915050612379565b600190505b949350505050565b61238b83836123ff565b61239860008484846121ea565b6123d7576040517f08c379a00000000000000000000000000000000000000000000000000000000081526004016123ce90613214565b60405180910390fd5b505050565b6000808273ffffffffffffffffffffffffffffffffffffffff163b119050919050565b600073ffffffffffffffffffffffffffffffffffffffff168273ffffffffffffffffffffffffffffffffffffffff16141561246f576040517f08c379a000000000000000000000000000000000000000000000000000000000815260040161246690613354565b60405180910390fd5b61247881611563565b156124b8576040517f08c379a00000000000000000000000000000000000000000000000000000000081526004016124af90613254565b60405180910390fd5b6124c4600083836121e0565b6001600360008473ffffffffffffffffffffffffffffffffffffffff1673ffffffffffffffffffffffffffffffffffffffff168152602001908152602001600020600082825461251491906134fd565b92505081905550816002600083815260200190815260200160002060006101000a81548173ffffffffffffffffffffffffffffffffffffffff021916908373ffffffffffffffffffffffffffffffffffffffff160217905550808273ffffffffffffffffffffffffffffffffffffffff16600073ffffffffffffffffffffffffffffffffffffffff167fddf252ad1be2c89b69c2b068fc378daa952ba7f163c4a11628f55a4df523b3ef60405160405180910390a46125d5600083836121e5565b5050565b8280546125e5906136c8565b90600052602060002090601f016020900481019282612607576000855561264e565b82601f1061262057805160ff191683800117855561264e565b8280016001018555821561264e579182015b8281111561264d578251825591602001919060010190612632565b5b50905061265b919061265f565b5090565b5b80821115612678576000816000905550600101612660565b5090565b600061268f61268a84613474565b61344f565b9050828152602081018484840111156126a757600080fd5b6126b2848285613686565b509392505050565b6000813590506126c981613fec565b92915050565b6000813590506126de81614003565b92915050565b6000813590506126f38161401a565b92915050565b6000815190506127088161401a565b92915050565b600082601f83011261271f57600080fd5b813561272f84826020860161267c565b91505092915050565b60008135905061274781614031565b92915050565b60006020828403121561275f57600080fd5b600061276d848285016126ba565b91505092915050565b6000806040838503121561278957600080fd5b6000612797858286016126ba565b92505060206127a8858286016126ba565b9150509250929050565b6000806000606084860312156127c757600080fd5b60006127d5868287016126ba565b93505060206127e6868287016126ba565b92505060406127f786828701612738565b9150509250925092565b6000806000806080858703121561281757600080fd5b6000612825878288016126ba565b9450506020612836878288016126ba565b935050604061284787828801612738565b925050606085013567ffffffffffffffff81111561286457600080fd5b6128708782880161270e565b91505092959194509250565b6000806040838503121561288f57600080fd5b600061289d858286016126ba565b92505060206128ae858286016126cf565b9150509250929050565b600080604083850312156128cb57600080fd5b60006128d9858286016126ba565b92505060206128ea85828601612738565b9150509250929050565b60006020828403121561290657600080fd5b6000612914848285016126e4565b91505092915050565b60006020828403121561292f57600080fd5b600061293d848285016126f9565b91505092915050565b60006020828403121561295857600080fd5b600061296684828501612738565b91505092915050565b61297881613612565b82525050565b61298781613624565b82525050565b6000612998826134ba565b6129a281856134d0565b93506129b2818560208601613695565b6129bb81613861565b840191505092915050565b60006129d1826134c5565b6129db81856134e1565b93506129eb818560208601613695565b6129f481613861565b840191505092915050565b6000612a0a826134c5565b612a1481856134f2565b9350612a24818560208601613695565b80840191505092915050565b60008154612a3d816136c8565b612a4781866134f2565b94506001821660008114612a625760018114612a7357612aa6565b60ff19831686528186019350612aa6565b612a7c856134a5565b60005b83811015612a9e57815481890152600182019150602081019050612a7f565b838801955050505b50505092915050565b6000612abc6025836134f2565b9150612ac782613872565b602582019050919050565b6000612adf6010836134e1565b9150612aea826138c1565b602082019050919050565b6000612b026032836134e1565b9150612b0d826138ea565b604082019050919050565b6000612b256025836134e1565b9150612b3082613939565b604082019050919050565b6000612b48601c836134e1565b9150612b5382613988565b602082019050919050565b6000612b6b6024836134e1565b9150612b76826139b1565b604082019050919050565b6000612b8e6019836134e1565b9150612b9982613a00565b602082019050919050565b6000612bb1602c836134e1565b9150612bbc82613a29565b604082019050919050565b6000612bd4600d836134f2565b9150612bdf82613a78565b600d82019050919050565b6000612bf76001836134f2565b9150612c0282613aa1565b600182019050919050565b6000612c1a6005836134f2565b9150612c2582613aca565b600582019050919050565b6000612c3d6038836134e1565b9150612c4882613af3565b604082019050919050565b6000612c60602a836134e1565b9150612c6b82613b42565b604082019050919050565b6000612c836029836134e1565b9150612c8e82613b91565b604082019050919050565b6000612ca6602e836134e1565b9150612cb182613be0565b604082019050919050565b6000612cc96002836134f2565b9150612cd482613c2f565b600282019050919050565b6000612cec6005836134f2565b9150612cf782613c58565b600582019050919050565b6000612d0f6020836134e1565b9150612d1a82613c81565b602082019050919050565b6000612d326031836134e1565b9150612d3d82613caa565b604082019050919050565b6000612d55602c836134e1565b9150612d6082613cf9565b604082019050919050565b6000612d78602f836134e1565b9150612d8382613d48565b604082019050919050565b6000612d9b6006836134f2565b9150612da682613d97565b600682019050919050565b6000612dbe6065836134f2565b9150612dc982613dc0565b606582019050919050565b6000612de1600a836134f2565b9150612dec82613e5b565b600a82019050919050565b6000612e046006836134f2565b9150612e0f82613e84565b600682019050919050565b6000612e276021836134e1565b9150612e3282613ead565b604082019050919050565b6000612e4a601d836134f2565b9150612e5582613efc565b601d82019050919050565b6000612e6d6031836134e1565b9150612e7882613f25565b604082019050919050565b6000612e906006836134f2565b9150612e9b82613f74565b600682019050919050565b6000612eb36026836134e1565b9150612ebe82613f9d565b604082019050919050565b612ed28161367c565b82525050565b6000612ee482846129ff565b915081905092915050565b6000612efb82856129ff565b9150612f0782846129ff565b91508190509392505050565b6000612f1f82876129ff565b9150612f2a82612df7565b9150612f3682866129ff565b9150612f4182612bea565b9150612f4d82856129ff565b9150612f5882612bea565b9150612f6482846129ff565b915081905095945050505050565b6000612f7e8285612a30565b9150612f8a82846129ff565b9150612f9582612bc7565b91508190509392505050565b6000612fac82612aaf565b9150612fb882846129ff565b915081905092915050565b6000612fce82612c0d565b9150612fda82846129ff565b915081905092915050565b6000612ff082612cdf565b9150612ffc82846129ff565b915081905092915050565b600061301282612d8e565b915061301e82846129ff565b915081905092915050565b600061303482612dd4565b915061304082856129ff565b915061304b82612db1565b915061305782846129ff565b915061306282612cbc565b91508190509392505050565b600061307982612e3d565b915061308582846129ff565b915081905092915050565b600061309b82612e83565b91506130a782846129ff565b915081905092915050565b60006020820190506130c7600083018461296f565b92915050565b60006080820190506130e2600083018761296f565b6130ef602083018661296f565b6130fc6040830185612ec9565b818103606083015261310e818461298d565b905095945050505050565b600060408201905061312e600083018561296f565b61313b6020830184612ec9565b9392505050565b6000602082019050613157600083018461297e565b92915050565b6000602082019050818103600083015261317781846129c6565b905092915050565b6000604082019050818103600083015261319981856129c6565b905081810360208301526131ad81846129c6565b90509392505050565b600060608201905081810360008301526131d081866129c6565b90506131df6020830185612ec9565b6131ec604083018461296f565b949350505050565b6000602082019050818103600083015261320d81612ad2565b9050919050565b6000602082019050818103600083015261322d81612af5565b9050919050565b6000602082019050818103600083015261324d81612b18565b9050919050565b6000602082019050818103600083015261326d81612b3b565b9050919050565b6000602082019050818103600083015261328d81612b5e565b9050919050565b600060208201905081810360008301526132ad81612b81565b9050919050565b600060208201905081810360008301526132cd81612ba4565b9050919050565b600060208201905081810360008301526132ed81612c30565b9050919050565b6000602082019050818103600083015261330d81612c53565b9050919050565b6000602082019050818103600083015261332d81612c76565b9050919050565b6000602082019050818103600083015261334d81612c99565b9050919050565b6000602082019050818103600083015261336d81612d02565b9050919050565b6000602082019050818103600083015261338d81612d25565b9050919050565b600060208201905081810360008301526133ad81612d48565b9050919050565b600060208201905081810360008301526133cd81612d6b565b9050919050565b600060208201905081810360008301526133ed81612e1a565b9050919050565b6000602082019050818103600083015261340d81612e60565b9050919050565b6000602082019050818103600083015261342d81612ea6565b9050919050565b60006020820190506134496000830184612ec9565b92915050565b600061345961346a565b905061346582826136fa565b919050565b6000604051905090565b600067ffffffffffffffff82111561348f5761348e613832565b5b61349882613861565b9050602081019050919050565b60008190508160005260206000209050919050565b600081519050919050565b600081519050919050565b600082825260208201905092915050565b600082825260208201905092915050565b600081905092915050565b60006135088261367c565b91506135138361367c565b9250827fffffffffffffffffffffffffffffffffffffffffffffffffffffffffffffffff03821115613548576135476137a5565b5b828201905092915050565b600061355e8261367c565b91506135698361367c565b925082613579576135786137d4565b5b828204905092915050565b600061358f8261367c565b915061359a8361367c565b9250817fffffffffffffffffffffffffffffffffffffffffffffffffffffffffffffffff04831182151516156135d3576135d26137a5565b5b828202905092915050565b60006135e98261367c565b91506135f48361367c565b925082821015613607576136066137a5565b5b828203905092915050565b600061361d8261365c565b9050919050565b60008115159050919050565b60007fffffffff0000000000000000000000000000000000000000000000000000000082169050919050565b600073ffffffffffffffffffffffffffffffffffffffff82169050919050565b6000819050919050565b82818337600083830152505050565b60005b838110156136b3578082015181840152602081019050613698565b838111156136c2576000848401525b50505050565b600060028204905060018216806136e057607f821691505b602082108114156136f4576136f3613803565b5b50919050565b61370382613861565b810181811067ffffffffffffffff8211171561372257613721613832565b5b80604052505050565b60006137368261367c565b91507fffffffffffffffffffffffffffffffffffffffffffffffffffffffffffffffff821415613769576137686137a5565b5b600182019050919050565b600061377f8261367c565b915061378a8361367c565b92508261379a576137996137d4565b5b828206905092915050565b7f4e487b7100000000000000000000000000000000000000000000000000000000600052601160045260246000fd5b7f4e487b7100000000000000000000000000000000000000000000000000000000600052601260045260246000fd5b7f4e487b7100000000000000000000000000000000000000000000000000000000600052602260045260246000fd5b7f4e487b7100000000000000000000000000000000000000000000000000000000600052604160045260246000fd5b6000601f19601f8301169050919050565b7f68747470733a2f2f6e6674707265766965772e30786465762e636f6465732f3f60008201527f636f64653d000000000000000000000000000000000000000000000000000000602082015250565b7f4e6f7420456e6f75676820457468657200000000000000000000000000000000600082015250565b7f4552433732313a207472616e7366657220746f206e6f6e20455243373231526560008201527f63656976657220696d706c656d656e7465720000000000000000000000000000602082015250565b7f4552433732313a207472616e736665722066726f6d20696e636f72726563742060008201527f6f776e6572000000000000000000000000000000000000000000000000000000602082015250565b7f4552433732313a20746f6b656e20616c7265616479206d696e74656400000000600082015250565b7f4552433732313a207472616e7366657220746f20746865207a65726f2061646460008201527f7265737300000000000000000000000000000000000000000000000000000000602082015250565b7f4552433732313a20617070726f766520746f2063616c6c657200000000000000600082015250565b7f4552433732313a206f70657261746f7220717565727920666f72206e6f6e657860008201527f697374656e7420746f6b656e0000000000000000000000000000000000000000602082015250565b7f3c2f746578743e3c2f7376673e00000000000000000000000000000000000000600082015250565b7f2000000000000000000000000000000000000000000000000000000000000000600082015250565b7f504c414345000000000000000000000000000000000000000000000000000000600082015250565b7f4552433732313a20617070726f76652063616c6c6572206973206e6f74206f7760008201527f6e6572206e6f7220617070726f76656420666f7220616c6c0000000000000000602082015250565b7f4552433732313a2062616c616e636520717565727920666f7220746865207a6560008201527f726f206164647265737300000000000000000000000000000000000000000000602082015250565b7f4552433732313a206f776e657220717565727920666f72206e6f6e657869737460008201527f656e7420746f6b656e0000000000000000000000000000000000000000000000602082015250565b7f45524337323155524953746f726167653a2055524920736574206f66206e6f6e60008201527f6578697374656e7420746f6b656e000000000000000000000000000000000000602082015250565b7f227d000000000000000000000000000000000000000000000000000000000000600082015250565b7f46414e4359000000000000000000000000000000000000000000000000000000600082015250565b7f4552433732313a206d696e7420746f20746865207a65726f2061646472657373600082015250565b7f45524337323155524953746f726167653a2055524920717565727920666f722060008201527f6e6f6e6578697374656e7420746f6b656e000000000000000000000000000000602082015250565b7f4552433732313a20617070726f76656420717565727920666f72206e6f6e657860008201527f697374656e7420746f6b656e0000000000000000000000000000000000000000602082015250565b7f4552433732314d657461646174613a2055524920717565727920666f72206e6f60008201527f6e6578697374656e7420746f6b656e0000000000000000000000000000000000602082015250565b7f46414d4f55530000000000000000000000000000000000000000000000000000600082015250565b7f222c20226465736372697074696f6e223a20224120686967686c79206163636c60008201527f61696d656420636f6c6c656374696f6e206f662073656e74656e6365732e222c60208201527f2022696d616765223a2022646174613a696d6167652f7376672b786d6c3b626160408201527f736536342c000000000000000000000000000000000000000000000000000000606082015250565b7f7b226e616d65223a202200000000000000000000000000000000000000000000600082015250565b7f2077697468200000000000000000000000000000000000000000000000000000600082015250565b7f4552433732313a20617070726f76616c20746f2063757272656e74206f776e6560008201527f7200000000000000000000000000000000000000000000000000000000000000602082015250565b7f646174613a6170706c69636174696f6e2f6a736f6e3b6261736536342c000000600082015250565b7f4552433732313a207472616e736665722063616c6c6572206973206e6f74206f60008201527f776e6572206e6f7220617070726f766564000000000000000000000000000000602082015250565b7f414354494f4e0000000000000000000000000000000000000000000000000000600082015250565b7f546865726520617265206f6e6c792035302045706963204e465473206176616960008201527f6c61626c652e0000000000000000000000000000000000000000000000000000602082015250565b613ff581613612565b811461400057600080fd5b50565b61400c81613624565b811461401757600080fd5b50565b61402381613630565b811461402e57600080fd5b50565b61403a8161367c565b811461404557600080fd5b5056fe416e204e465420772f20494420257320686173206265656e206d696e74656420746f2025734142434445464748494a4b4c4d4e4f505152535455565758595a6162636465666768696a6b6c6d6e6f707172737475767778797a303132333435363738392b2fa26469706673582212208ceb984fdc46fa83c54507d28baa6ece2e8e7120648b9a43dcc8ba092a42c59a64736f6c634300080100333c73766720786d6c6e733d27687474703a2f2f7777772e77332e6f72672f323030302f73766727207072657365727665417370656374526174696f3d27784d696e594d696e206d656574272076696577426f783d273020302033353020333530273e3c7374796c653e2e62617365207b2066696c6c3a2077686974653b20666f6e742d66616d696c793a2073657269663b20666f6e742d73697a653a20313270783b207d3c2f7374796c653e3c726563742077696474683d273130302527206865696768743d2731303025272066696c6c3d27626c61636b27202f3e3c7465787420783d273530252720793d273530252720636c6173733d27626173652720646f6d696e616e742d626173656c696e653d276d6964646c652720746578742d616e63686f723d276d6964646c65273e",
  "linkReferences": {},
  "deployedLinkReferences": {}
}